:0420000004EF10F0E9
:0A200800000EF86E00017AEF3EF0C2
:107A8E00020E826E000E026E320E016E00EC3EF0A1
:107A9E00000E826E000E026E140E016E00EC3EF0B1
:107AAE001200010E826E000E026E2A0E016E00ECA6
:107ABE003EF0000E826E000E026E140E016E00EC91
:107ACE003EF01200030E826E000E026E300E016E3C
:107ADE0000EC3EF0020E826E000E026E040E016E7F
:107AEE0000EC3EF0000E826E000E026E140E016E61
:107AFE0000EC3EF01200030E826E000E026E300E8F
:107B0E00016E00EC3EF0020E826E000E026E040E4E
:107B1E00016E00EC3EF0000E826E000E026E280E1C
:107B2E00016E00EC3EF01200030E826E000E026E2D
:107B3E00300E016E00EC3EF0020E826E000E026EF2
:107B4E00040E016E00EC3EF0000E826E000E026E10
:107B5E00280E016E00EC3EF01200030E826E000E37
:107B6E00026E080E016E00EC3EF0020E826E000EEA
:107B7E00026E0A0E016E00EC3EF0000E826E000EDA
:107B8E00026E1E0E016E00EC3EF01200030E826EAF
:107B9E00000E026E080E016E00EC3EF0010E826EBB
:107BAE00000E026E080E016E00EC3EF0000E826EAC
:107BBE00000E026E1E0E016E00EC3EF0120081A051
:107BCE0002D0808001D0809081A202D0808201D02C
:107BDE00809281A402D0808401D0809481A602D0AC
:107BEE00808601D0809681A802D0808801D08098AE
:107BFE001200000E056E000E046E11D0000E076E00
:107C0E00000E066E07BE06D02C0E065C010E07583F
:107C1E00D8B003D0064A072AF5D7044A052A0150E0
:107C2E00045C0550800A036E0250800A0358D8B0D7
:107C3E001200E4D7000E056E000E046E05BE06D0CF
:107C4E0005501FE1080E045CD8B01BD0045001246F
:107C5E00D96E05500220DA6EDF50D8B40FD0045022
:107C6E000124D96E05500220DA6E020EDE18D8B449
:107C7E0005D0000E026E000E016E1200044A052A97
:107C8E00DDD7000E026E010E016E1200000E056EA3
:107C9E00000E046E05BE06D0055020E1080E045CF1
:107CAE00D8B01CD004500124D96E05500220DA6ED3
:107CBE00060EDE18D8B40AD004500124D96E055031
:107CCE000220DA6E040EDE18D8A405D0000E026E65
:107CDE00010E016E1200044A052ADCD7000E026E58
:107CEE00000E016E12000F0EC16E200E926E936882
:107CFE00000E946E000E806E000E816E000E826E6F
:107D0E0002D0E6EC3DF080BAFCD7000E1A6E186871
:107D1E001968E6EC3DF081A003D00B6A0B2A01D066
:107D2E000B6A0B50016E026A81A203D00C6A0C2AF8
:107D3E0001D00C6A0C50036E046A81A403D00D6A44
:107D4E000D2A01D00D6A0D50056E066A81A603D06C
:107D5E000E6A0E2A01D00E6A0E50076E086A81A8AE
:107D6E0003D00F6A0F2A01D00F6A0F50096E0A6AEC
:107D7E002AEC3FF01A6E1A04D8A412D0070E18245B
:107D8E000B6E000E19200C6E070E0B16000E0C1645
:107D9E00100E0B24D96E000E0C20DA6EDF501A6E08
:107DAE00010E18240B6E000E19200C6E070E0B140C
:107DBE00186E196A100E1824D96E000E1920DA6E7C
:107DCE001AC0DFFF2CD0100E016E000E026E21ECD9
:107DDE003EF001500210D8B403D069EC3DF099D7B3
:107DEE00100E016E000E026E4DEC3EF001500210B0
:107DFE00D8B403D082EC3DF08CD79BEC3DF089D704
:107E0E00CDEC3DF086D7B4EC3DF083D758EC3DF089
:107E1E0080D747EC3DF07DD79BEC3DF07AD71A50DA
:107E2E00000AD8B4F9D7020AD8B4CDD7010AD8B40B
:107E3E00EAD7070AD8B4EDD7010AD8B4E1D7030AB6
:107E4E00D8B4E4D766D701040210D8A410D0030426
:107E5E000410D8A40CD005040610D8A408D007042A
:107E6E000810D8A404D009040A10D8B414D00150B4
:107E7E000210D8A412D003500410D8A40ED005506E
:107E8E000610D8A40AD007500810D8A406D009505E
:107E9E000A10D8A402D0010E120005500610D8A464
:107EAE0010D001040210D8A40CD003040410D8A4DE
:107EBE0008D007040810D8A404D009040A10D8B4B6
:107ECE0014D005040610D8A412D001500210D8A464
:107EDE000ED003500410D8A40AD007500810D8A40E
:107EEE0006D009500A10D8A402D0020E12000104C6
:107EFE000210D8A40ED003500410D8A40AD0070440
:107F0E000810D8A406D009040A10D8A402D0030E73
:107F1E00120001040210D8A40ED003040410D8A439
:107F2E000AD007500810D8A406D009040A10D8A405
:107F3E0002D0050E120001500210D8A40AD005047A
:107F4E000610D8A406D009040A10D8A402D0040E34
:107F5E00120001040210D8A40AD005040610D8A4F9
:107F6E0006D009500A10D8A402D0060E12000150F5
:107F7E000210D8A40ED003040410D8A40AD00750BF
:107F8E000810D8A406D009500A10D8A402D0030EA7
:107F9E00120001500210D8A40ED003500410D8A421
:107FAE000AD007040810D8A406D009500A10D8A485
:107FBE0002D0050E120001040210D8A40AD00550FA
:107FCE000610D8A406D009500A10D8A402D0040E68
:107FDE00120001500210D8A40AD005500610D8A4E1
:107FEE0006D009040A10D8A402D0060E1200000E04
:027FFE0012006F
:020000040020DA
:08000000FFFFFFFFFFFFFFFF00
:020000040030CA
:0E00000000051F1FFF8385FF0FC00FE00F409C
:00000001FF
