:0420000004EF10F0E9
:0A200800000EF86E00017FEF3EF0BD
:107AB400020E826E000E026E320E016EFAEC3DF082
:107AC400000E826E000E026E280E016EFAEC3DF07E
:107AD4001200010E826E000E026E2A0E016EFAEC86
:107AE4003DF0000E826E000E026E280E016EFAEC5E
:107AF4003DF01200030E826E000E026E300E016E17
:107B0400FAEC3DF0020E826E000E026E040E016E5F
:107B1400FAEC3DF0000E826E000E026E0F0E016E46
:107B2400FAEC3DF01200030E826E000E026E300E6F
:107B3400016EFAEC3DF0020E826E000E026E040E2F
:107B4400016EFAEC3DF0000E826E000E026E1E0E07
:107B5400016EFAEC3DF01200030E826E000E026E0E
:107B64000A0E016EFAEC3DF0020E826E000E026EF9
:107B74000A0E016EFAEC3DF0000E826E000E026EEB
:107B84001E0E016EFAEC3DF01200030E826E000E22
:107B9400026E0A0E016EFAEC3DF0010E826E000ECA
:107BA400026E080E016EFAEC3DF0000E826E000EBD
:107BB400026E1E0E016EFAEC3DF0120081A002D09E
:107BC400808001D0809081A202D0808201D08092F6
:107BD40081A402D0808401D0809481A602D08086C2
:107BE40001D0809681A802D0808801D080981200AC
:107BF400000E056E000E046E11D0000E076E000E0E
:107C0400066E07BE06D02C0E065C010E0758D8B0CF
:107C140003D0064A072AF5D7044A052A0150045C12
:107C24000550800A036E0250800A0358D8B012002F
:107C3400E4D7000E056E000E046E05BE06D0055096
:107C44001FE1050E045CD8B01BD004500124D96E8A
:107C540005500220DA6EDF50D8B40FD0045001244E
:107C6400D96E05500220DA6E020EDE18D8B405D0A3
:107C7400000E026E000E016E1200044A052ADDD7C2
:107C8400000E026E010E016E1200000E066E02AEB0
:107C940006D0016C021ED8B0022A010E066E04AE94
:107CA40004D0036C041ED8B0042A03500410D8B4C2
:107CB40018D0010E056E04D0D89003360436052A78
:107CC40004AEFAD70350015C04500258D8A004D083
:107CD4000350015E0450025AD89004320332052E38
:107CE400F1D70650D8B404D0016C021ED8B0022AD1
:107CF40001C001F002C002F012000F0EC16E200E8E
:107D0400926E9368000E946E000E806E000E816E6B
:107D1400000E826E02D0E0EC3DF080BAFCD7000E7B
:107D2400176E15681668E0EC3DF081A003D00B6A6D
:107D34000B2A01D00B6A0B50016E026A81A203D098
:107D44000C6A0C2A01D00C6A0C50036E046A81A4DC
:107D540003D00D6A0D2A01D00D6A0D50056E066A16
:107D640081A603D00E6A0E2A01D00E6A0E50076E49
:107D7400086A81A803D00F6A0F2A01D00F6A0F5036
:107D8400096E0A6A2AEC3FF0176E1704D8A414D0BF
:107D9400040E1524016E000E1620026E000E046EF1
:107DA400050E036E47EC3EF0100E0124D96E000E52
:107DB4000220DA6EDF50176E010E1524016E000EDC
:107DC4001620026E000E046E050E036E47EC3EF0A4
:107DD40001C015F002C016F0100E1524D96E000E65
:107DE4001620DA6E17C0DFFF1FD0100E016E000ED2
:107DF400026E1BEC3EF001500210D8B403D07CECB0
:107E04003DF091D795EC3DF08ED7C7EC3DF08BD784
:107E1400AEEC3DF088D76BEC3DF085D75AEC3DF0E5
:107E240082D795EC3DF07FD71750000AD8B4F9D724
:107E3400020AD8B4DAD7010AD8B4EAD7070AD8B400
:107E4400EDD7010AD8B4E1D7030AD8B4E4D76BD785
:107E540001040210D8A410D003040410D8A40CD038
:107E640005040610D8A408D007040810D8A404D028
:107E740009040A10D8B414D001500210D8A412D0A6
:107E840003500410D8A40ED005500610D8A40AD06C
:107E940007500810D8A406D009500A10D8A402D05C
:107EA400010E120005500610D8A410D001040210CF
:107EB400D8A40CD003040410D8A408D007040810D4
:107EC400D8A404D009040A10D8B414D005040610A8
:107ED400D8A412D001500210D8A40ED0035004101C
:107EE400D8A40AD007500810D8A406D009500A1004
:107EF400D8A402D0020E120001040210D8A40ED09D
:107F040003500410D8A40AD007040810D8A406D03B
:107F140009040A10D8A402D0030E120001040210AE
:107F2400D8A40ED003040410D8A40AD00750081013
:107F3400D8A406D009040A10D8A402D0050E120051
:107F440001500210D8A40AD005040610D8A406D003
:107F540009040A10D8A402D0040E1200010402106D
:107F6400D8A40AD005040610D8A406D009500A10D3
:107F7400D8A402D0060E120001500210D8A40ED0CC
:107F840003040410D8A40AD007500810D8A406D0BB
:107F940009500A10D8A402D0030E12000150021096
:107FA400D8A40ED003500410D8A40AD00704081093
:107FB400D8A406D009500A10D8A402D0050E120085
:107FC40001040210D8A40AD005500610D8A406D083
:107FD40009500A10D8A402D0040E12000150021055
:107FE400D8A40AD005500610D8A406D009040A1053
:0C7FF400D8A402D0060E1200000E1200ED
:020000040020DA
:08000000FFFFFFFFFFFFFFFF00
:020000040030CA
:0E00000000051F1FFF8385FF0FC00FE00F409C
:00000001FF
