:042000008AEF38F03B
:082008000000A041000070413E
:107080000150021003100410D8B408D0000E011AE9
:10709000000E021A000E031A800E041A01C001F03D
:1070A00002C002F003C003F004C004F01200030E9B
:1070B000826E000E026E300E016EA8EC38F0020EE9
:1070C000826E000E026E040E016EA8EC38F0000E07
:1070D000826E000E026E280E016EA8EC38F01200CF
:1070E00081A002D0808001D0809081A202D08082D5
:1070F00001D0809281A402D0808401D0809481A6A6
:1071000002D0808601D0809681A802D0808801D0EC
:1071100080981200080EF66E200EF76E000EF86EC4
:1071200000EE58F010EE08F00900F5CFEEFFE55044
:10713000E150FAE10001636B626B616B606B00EE22
:1071400044F0140EEE6AE806FDE10001BCEF3BF0EE
:10715000000E056E000E046E11D0000E076E000EBC
:10716000066E07BE06D02C0E065C010E0758D8B07E
:1071700003D0064A072AF5D7044A052A0150045CC1
:107180000550800A036E0250800A0358D8B01200DE
:10719000E4D7033404340A6E0A50D8A409D0000E90
:1071A000016E000E026E000E036E000E046E1200E1
:1071B00001C005F002C006F003C007F004C008F0EB
:1071C000200E05D0D8900832073206320532E82E5C
:1071D000F9D70550096E038EFF0E0116FF0E021639
:1071E000FF0E0316000E0416960E0A5E0AAE16D0A7
:1071F0000A50800A970FD8B009D0000E016E000E19
:10720000026E000E036E000E046E1200D89004325F
:107210000332023201320A3EF9D715D01F0E0A643A
:107220000FD0000E016E000E026E000E036E000EF7
:10723000046E1200D89001360236033604360A0670
:107240000A50D8A4F7D70950D8B408D0041E031E9A
:10725000021E016C000E02220322042201C001F072
:1072600002C002F003C003F004C004F012002EC0FC
:1072700001F02FC002F030C003F031C004F032C082
:1072800005F033C006F034C007F035C008F0BBECA1
:1072900039F0D8A009D032C03CF033C03DF034C042
:1072A0003EF035C03FF008D02EC03CF02FC03DF07E
:1072B00030C03EF031C03FF03CC001F03DC002F0B4
:1072C0003EC003F03FC004F0C9EC38F001C040F00C
:1072D00002C041F02EC001F02FC002F030C003F018
:1072E00031C004F0C9EC38F001C038F002C039F008
:1072F00032C001F033C002F034C003F035C004F0F6
:10730000C9EC38F001C03AF002C03BF0030E826EC7
:1073100040C001F041C002F0A8EC38F0010E826ECE
:1073200040C036F041C037F0361E371E364A372A85
:1073300038503624016E39503720026EA8EC38F0F0
:10734000020E826E40C036F041C037F0361E371E46
:10735000364A372A3A503624016E3B503720026EA7
:10736000A8EC38F0000E826E000E026E280E016E40
:10737000A8EC38F01200000E0114096E000E021481
:107380000A6E800E03140B6E7F0E04140C6E0950EF
:107390000A100B100C10D8A408D0000E016E000EBD
:1073A000026E000E036E000E046E000E0514096ED0
:1073B000000E06140A6E800E07140B6E7F0E081462
:1073C0000C6E09500A100B100C10D8A408D0000E37
:1073D000056E000E066E000E076E000E086E04AEFF
:1073E0001DD001C009F002C00AF003C00BF004C0B8
:1073F0000CF0091E0A1E0B1E0C1E092A000E0A2282
:107400000B220C22000E0924016E000E0A20026ECF
:10741000000E0B20036E800E0C20046E08AE1DD0F3
:1074200005C009F006C00AF007C00BF008C00CF058
:10743000091E0A1E0B1E0C1E092A000E0A220B2210
:107440000C22000E0924056E000E0A20066E000EA6
:107450000B20076E800E0C20086E000E011A000E25
:10746000021A000E031A800E041A000E051A000EEE
:10747000061A000E071A800E081A0550015C065005
:1074800002580750035808500458D8B002D0D8907A
:107490001200D8801200096E0950D8A404AE1AD088
:1074A00001C005F002C006F003C007F004C008F0F8
:1074B000051E061E071E081E052A000E06220722AC
:1074C000082205C00BF006C00CF007C00DF008C084
:1074D0000EF008D001C00BF002C00CF003C00DF09C
:1074E00004C00EF00150021003100410D8A409D0FB
:1074F000000E016E000E026E000E036E000E046E92
:107500001200960E0A6E06D00A2AD8900E320D325C
:107510000C320B32000E0B14056E000E0C14066EAE
:10752000000E0D14076EFE0E0E14086E05500610A8
:1075300007100810D8B40DD0E7D70A2A010E0B2681
:10754000000E0C220D220E22D8900E320D320C327B
:107550000B32000E0B14056E000E0C14066E000E9E
:107560000D14076EFF0E0E14086E0550061007105E
:107570000810D8B407D0E1D70A06D8900B360C36DD
:107580000D360E360DBE03D0020E0A60F5D70AB0D6
:1075900008D0FF0E0B16FF0E0C167F0E0D16FF0EF9
:1075A0000E16D8900A320AC005F0066A076A086A01
:1075B00005C008F0076A066A056A05500B120650F6
:1075C0000C1207500D1208500E120950D8A404AE28
:1075D00001D00E8E0BC001F00CC002F00DC003F004
:1075E0000EC004F0120056C001F057C002F0000EA9
:1075F00002BEFF0E036E046E010E4BEC3AF001C0AA
:107600004CF002C04DF003C04EF004C04FF056C025
:1076100001F057C002F0000E02BEFF0E036E046EB2
:10762000010E4BEC3AF001C01AF002C01BF003C08F
:107630001CF004C01DF048C01EF049C01FF04AC035
:1076400020F04BC021F0BAEC3CF01AC048F01BC04F
:1076500049F01CC04AF01DC04BF054C032F055C078
:1076600033F0321E331E324A332A565032265750D8
:10767000332232C001F033C002F0000E02BEFF0E12
:10768000036E046E010E4BEC3AF001C060F002C0D4
:1076900061F003C062F004C063F056C054F057C0FC
:1076A00055F048C005F049C006F04AC007F04BC08D
:1076B00008F050C001F051C002F052C003F053C0B6
:1076C00004F058EC3EF001C01EF002C01FF003C0F1
:1076D00020F004C021F04CC005F04DC006F04EC0B3
:1076E00007F04FC008F05CC001F05DC002F05EC062
:1076F00003F05FC004F058EC3EF001C01AF002C085
:107700001BF003C01CF004C01DF0BAEC3CF01AC022
:1077100034F01BC035F01CC036F01DC037F034C04B
:107720001AF035C01BF036C01CF037C01DF060C029
:1077300005F061C006F062C007F063C008F058C0F1
:1077400001F059C002F05AC003F05BC004F058ECDD
:107750003EF001C01EF002C01FF003C020F004C0C4
:1077600021F0BAEC3CF01AC02EF01BC02FF01CC068
:1077700030F01DC031F012000F0EC16E200E926E5F
:107780009368000E946E000E806E000E816E000EE7
:10779000826E02D070EC38F080BAFCD7000E436ED7
:1077A000000E426E70EC38F0000E576E000E566EF2
:1077B00081A081A209D081B481A606D081A804D07D
:1077C000FF0E576EFD0E6AD081A081B209D081B440
:1077D00081A606D081A804D0FF0E576EFE0E5ED0A3
:1077E00081B081B205D081B481A602D081B838D0F1
:1077F00081B081A209D081B481A606D081B804D01D
:10780000000E576E030E4AD081B081A209D081B418
:1078100081B606D081B804D0000E576E020E3ED05D
:1078200081B081A205D081B481B602D081B833D0B5
:1078300081B081B205D081A481B602D081A8C0D721
:1078400081B081A205D081A481B602D081A8C4D71D
:1078500081A081A208D081A481B605D081B803D0CF
:107860005668576831D081A081B205D081A481B615
:1078700002D081B8C5D781A081B205D081A481A6EC
:1078800002D081B8C9D781A081B20AD081A481A6D3
:1078900007D081B805D0000E576E010E566E14D079
:1078A00081A081B205D081A481B602D081A808D080
:1078B00081B081A209D081B481A606D081A804D06C
:1078C00042C056F043C057F0F3EC3AF02EC044F0FB
:1078D0002FC045F030C046F031C047F05650571029
:1078E000D8A403D057EC38F040D044C01AF045C0BB
:1078F0001BF046C01CF047C01DF0000E1E6E000EAF
:107900001F6E200E206E410E216EBAEC3CF01AC0A4
:107910002EF01BC02FF01CC030F01DC031F044C051
:1079200001F045C002F046C003F047C004F040EC4F
:1079300038F001C01AF002C01BF003C01CF004C0F4
:107940001DF0000E1E6E000E1F6E200E206E410EEA
:10795000216EBAEC3CF01AC032F01BC033F01CC0F0
:1079600034F01DC035F037EC39F056C042F057C046
:1079700043F018D71D50800B2A6E1D501D242C6E0D
:107980001CBE2C802C50D8B40DD02C28D8A408D0E4
:10799000000E1A6E000E1B6E000E1C6E000E1D6E89
:1079A0001C8E06D0000E1A6E000E1B6E000E1C6E92
:1079B000000E1D6E2150800B2B6E2A502B18D8A460
:1079C0002A8C215021242B6E20BE2B802B50D8B422
:1079D0000DD02B28D8A408D0000E1E6E000E1F6EEE
:1079E000000E206E000E216E208E06D0000E1E6E40
:1079F000000E1F6E000E206E000E216E2C502B5CB0
:107A0000D8B022D02AAC02D0800E2A1A2CC02DF079
:107A10002BC02CF02DC02BF01AC02DF01EC01AF078
:107A20002DC01EF01BC02DF01FC01BF02DC01FF07D
:107A30001CC02DF020C01CF02DC020F01DC02DF06A
:107A400021C01DF02DC021F0000E2D6E2C50226E95
:107A5000236A221E231E224A232A2B50246E256AC3
:107A6000225024262350252225BE2CD0255004E167
:107A70001A0E245CD8A026D01A501B101C101D1002
:107A8000D8B402D0010E01D0000E2D6E000E1A6E79
:107A9000000E1B6E000E1C6E000E1D6E2BC02CF017
:107AA00015D02DA005D0D8902D3001092D6E02D013
:107AB000D8902D321AB02D8E1D341D321C321B323F
:107AC0001A322C2A2B502C5CD8A0EBD72ABC29D0F8
:107AD0002C50D8A409D0000E1A6E000E1B6E000E9A
:107AE0001C6E000E1D6E12001E501A261F501B2207
:107AF00020501C2221501D221DA083D02DA006D075
:107B0000D8902D322D5001092D6E02D0D8902D32F3
:107B10001AB02D8E1D341D321C321B321A322C2A03
:107B200070D01E501A5C1F501B5820501C581D50FE
:107B3000800A226E2150800A2258D8B036D01AC04E
:107B400022F01BC023F01CC024F01DC025F0221E13
:107B5000231E241E251E222A000E23222422252233
:107B60001E502224266E1F502320276E20502420D2
:107B7000286E21502520296EFF0E26241A6EFF0E36
:107B800027201B6EFF0E28201C6EFF0E29201D6E65
:107B9000800E2A1A2D6C2D50D8A40FD0010E1A2653
:107BA000000E1B221C221D2208D01E501A5E1F50E0
:107BB0001B5A20501C5A21501D5A1A501B101C10C1
:107BC0001D10D8A41CD02D50D8A419D0000E1A6EA8
:107BD000000E1B6E000E1C6E000E1D6E1200D89063
:107BE0001A361B361C361D362DBE1A802DA002D02B
:107BF000D88001D0D8902D362C50D8A42C061CAE9D
:107C0000EED7000E2B6E2DAE0AD02DC022F07F0EC7
:107C10002216D8A402D01AA002D0010E2B6E2B502F
:107C2000D8B420D0010E1A26000E1B221C221D22C1
:107C30001DA018D01AC022F01BC023F01CC024F0D5
:107C40001DC025F02534253224322332223222C0B1
:107C50001AF023C01BF024C01CF025C01DF02C28F6
:107C6000D8A42C2A2C28D8B403D02C50D8A40DD0BA
:107C7000000E1A6E000E1B6E000E1C6E000E1D6EA6
:107C80002C50D8A402D0000E2A6E2CA002D01C8E3C
:107C900001D01C9ED8902C301D6E2ABE1D8E1AC09D
:107CA0001AF01BC01BF01CC01CF01DC01DF0120000
:107CB0000450800B0D6E04500424136E03BE138019
:107CC0001350D8B40DD01328D8A408D0000E016EDC
:107CD000000E026E000E036E000E046E038E08D0BE
:107CE000000E016E000E026E000E036E000E046E9A
:107CF0000850800B0D1A08500824126E07BE12801F
:107D00001250D8B40DD01228D8A408D0000E056E99
:107D1000000E066E000E076E000E086E078E08D06D
:107D2000000E056E000E066E000E076E000E086E49
:107D30001250D8B403D01350D8A409D0000E016E4D
:107D4000000E026E000E036E000E046E120007504D
:107D50000102F3CF18F0F4CF19F018500E6E0F6A2D
:107D6000106A116A1950146E156A166A176A06505D
:107D70000202F3CF18F0F4CF19F018500E26000EBF
:107D80000F221022112219501426000E152216223D
:107D9000172205500302F3CF18F0F4CF19F0185052
:107DA0000E26000E0F221022112219501426000E4A
:107DB00015221622172210C011F00FC010F00EC0AD
:107DC0000FF00E6A05500202F3CF18F0F4CF19F04D
:107DD00018500E2619500F22000E1022000E1122EC
:107DE00006500102F3CF18F0F4CF19F018500E2608
:107DF00019500F22000E1022000E112210C011F097
:107E00000FC010F00EC00FF00E6A05500102F3CF44
:107E100018F0F4CF19F018500E2619500F22000E4A
:107E20001022000E112207500202F3CF18F0F4CFF7
:107E300019F01850142619501522000E1622000EA3
:107E4000172206500302F3CF18F0F4CF19F01850A0
:107E5000142619501522000E1622000E1722075064
:107E60000302F3CF18F0F4CF19F01850096E19502F
:107E70000A6E0B6A0C6A0BC00CF00AC00BF009C04A
:107E80000AF0096A095014260A5015220B501622CE
:107E90000C5017220EC009F00FC00AF010C00BF0F2
:107EA00011C00CF0190E05D0D8900C320B320A32EA
:107EB0000932E82EF9D7095014260A5015220B5022
:107EC00016220C50172210C011F00FC010F00EC077
:107ED0000FF00E6A125013C009F00A6A0926000E4C
:107EE0000A22820E0924186EFF0E0A20196E0FD086
:107EF000D890143615361636173611BE1480D89021
:107F00000E360F36103611361806D8A0190616AEE2
:107F1000EFD7000E126E11AE16D0FF0E0E14096EC2
:107F2000FF0E0F140A6EFF0E10140B6E7F0E11144D
:107F30000C6E09500A100B100C10D8A402D014A01B
:107F400002D0010E126E1250D8B41FD0010E1426AA
:107F5000000E15221622172217A017D014C009F000
:107F600015C00AF016C00BF017C00CF00C340C3220
:107F70000B320A32093209C014F00AC015F00BC0E6
:107F800016F00CC017F0184A192A19BE0DD0195056
:107F900003E11828D8A008D0000E146E000E156E4C
:107FA000800E166E7F0E20D019BE05D019500EE13E
:107FB0001804D8B00BD0000E146E000E156E000E13
:107FC000166E000E176E000E0D6E0FD018C013F057
:107FD000FF0E1416FF0E15167F0E1616000E17163E
:107FE00013B0168ED8901330176E0D50171214C0A0
:107FF00001F015C002F016C003F017C004F0120023
:020000040020DA
:08000000FFFFFFFFFFFFFFFF00
:020000040030CA
:0E00000000051F1FFF8385FF0FC00FE00F409C
:00000001FF
