:0420000004EF10F0E9
:0A200800000EF86E0001AFEF3EF08D
:107BDC00020E826E000E026E320E016E8EEC3EF0C4
:107BEC00000E826E000E026E3C0E016E8EEC3EF0AC
:107BFC001200010E826E000E026E280E016E8EECCB
:107C0C003EF0000E826E000E026E3C0E016E8EEC8B
:107C1C003EF01200030E826E000E026E3C0E016EE0
:107C2C008EEC3EF0020E826E000E026E050E016EA0
:107C3C008EEC3EF0000E826E000E026E0F0E016E88
:107C4C008EEC3EF01200030E826E000E026E300EB1
:107C5C00016E8EEC3EF0020E826E000E026E040E71
:107C6C00016E8EEC3EF0000E826E000E026E3C0E2B
:107C7C00016E8EEC3EF01200030E826E000E026E50
:107C8C00050E016E8EEC3EF0020E826E000E026E40
:107C9C00280E016E8EEC3EF0000E826E000E026E0F
:107CAC00320E016E8EEC3EF01200030E826E000E50
:107CBC00026E050E016E8EEC3EF0010E826E000E11
:107CCC00026E200E016E8EEC3EF0000E826E000EE7
:107CDC00026E320E016E8EEC3EF0120081A002D0CC
:107CEC00808001D0809081A202D0808201D08092CD
:107CFC0081A402D0808401D0809481A602D0808699
:107D0C0001D0809681A802D0808801D08098120082
:107D1C00000E056E000E046E11D0000E076E000EE4
:107D2C00066E07BE06D02C0E065C010E0758D8B0A6
:107D3C0003D0064A072AF5D7044A052A0150045CE9
:107D4C000550800A036E0250800A0358D8B0120006
:107D5C00E4D70F0EC16E200E926E9368000E946ED7
:107D6C00000E806E000E816E000E826E02D074ECDE
:107D7C003EF080BAFCD7000E116E74EC3EF011C0D0
:107D8C0010F081A003D00B6A0B2A01D00B6A0B50A8
:107D9C00016E026A81A203D00C6A0C2A01D00C6A13
:107DAC000C50036E046A81A403D00D6A0D2A01D015
:107DBC000D6A0D50056E066A81A603D00E6A0E2A56
:107DCC0001D00E6A0E50076E086A81A803D00F6AA4
:107DDC000F2A01D00F6A0F50096E0A6A2AEC3FF085
:107DEC00116E1104D8A41CD010C011F019D0020EC1
:107DFC001018D8A403D010EC3EF0BFD729EC3EF0FD
:107E0C00BCD75BEC3EF0B9D742EC3EF0B6D7FFECFA
:107E1C003DF0B3D7EEEC3DF0B0D729EC3EF0ADD74A
:107E2C001150000AD8B4F9D7020AD8B4E0D7010A25
:107E3C00D8B4EAD7070AD8B4EDD7010AD8B4E1D739
:107E4C00030AD8B4E4D799D701040210D8A410D0EF
:107E5C0003040410D8A40CD005040610D8A408D030
:107E6C0007040810D8A404D009040A10D8B414D0FC
:107E7C0001500210D8A412D003500410D8A40ED074
:107E8C0005500610D8A40AD007500810D8A406D064
:107E9C0009500A10D8A402D0010E12000550061089
:107EAC00D8A410D001040210D8A40CD003040410E0
:107EBC00D8A408D007040810D8A404D009040A10C8
:107ECC00D8B414D005040610D8A412D00150021056
:107EDC00D8A40ED003500410D8A40AD00750081010
:107EEC00D8A406D009500A10D8A402D0020E120051
:107EFC0001040210D8A40ED003500410D8A40AD048
:107F0C0007040810D8A406D009040A10D8A402D07B
:107F1C00030E120001040210D8A40ED003040410A6
:107F2C00D8A40AD007500810D8A406D009040A1007
:107F3C00D8A402D0050E120001500210D8A40AD009
:107F4C0005040610D8A406D009040A10D8A402D03F
:107F5C00040E120001040210D8A40AD00504061065
:107F6C00D8A406D009500A10D8A402D0060E1200CC
:107F7C0001500210D8A40ED003040410D8A40AD0C7
:107F8C0007500810D8A406D009500A10D8A402D063
:107F9C00030E120001500210D8A40ED0035004108E
:107FAC00D8A40AD007040810D8A406D009500A1087
:107FBC00D8A402D0050E120001040210D8A40AD0D5
:107FCC0005500610D8A406D009500A10D8A402D027
:107FDC00040E120001500210D8A40AD0055006104D
:107FEC00D8A406D009040A10D8A402D0060E120098
:047FFC00000E120061
:020000040020DA
:08000000FFFFFFFFFFFFFFFF00
:020000040030CA
:0E00000000051F1FFF8385FF0FC00FE00F409C
:00000001FF
